{
  "contractName": "BankPool",
  "abi": [
    {
      "constant": true,
      "inputs": [],
      "name": "getBalance",
      "outputs": [
        {
          "name": "",
          "type": "uint256"
        }
      ],
      "payable": false,
      "stateMutability": "view",
      "type": "function"
    },
    {
      "constant": false,
      "inputs": [
        {
          "name": "nonce",
          "type": "uint256"
        },
        {
          "name": "addrs",
          "type": "address[]"
        },
        {
          "name": "amounts",
          "type": "uint256[]"
        }
      ],
      "name": "batchWithdraw",
      "outputs": [
        {
          "name": "",
          "type": "bool"
        }
      ],
      "payable": false,
      "stateMutability": "nonpayable",
      "type": "function"
    },
    {
      "constant": true,
      "inputs": [],
      "name": "owner",
      "outputs": [
        {
          "name": "",
          "type": "address"
        }
      ],
      "payable": false,
      "stateMutability": "view",
      "type": "function"
    },
    {
      "constant": true,
      "inputs": [
        {
          "name": "",
          "type": "uint256"
        }
      ],
      "name": "nonceUsed",
      "outputs": [
        {
          "name": "",
          "type": "bool"
        }
      ],
      "payable": false,
      "stateMutability": "view",
      "type": "function"
    },
    {
      "constant": false,
      "inputs": [
        {
          "name": "nonce",
          "type": "uint256"
        },
        {
          "name": "addrs",
          "type": "address[]"
        },
        {
          "name": "amounts",
          "type": "uint256[]"
        }
      ],
      "name": "batchDeposit",
      "outputs": [
        {
          "name": "",
          "type": "bool"
        }
      ],
      "payable": false,
      "stateMutability": "nonpayable",
      "type": "function"
    },
    {
      "constant": false,
      "inputs": [],
      "name": "drain",
      "outputs": [
        {
          "name": "",
          "type": "bool"
        }
      ],
      "payable": false,
      "stateMutability": "nonpayable",
      "type": "function"
    },
    {
      "constant": false,
      "inputs": [
        {
          "name": "nonce",
          "type": "uint256"
        },
        {
          "name": "addrs",
          "type": "address[]"
        },
        {
          "name": "amounts",
          "type": "uint256[]"
        },
        {
          "name": "vs",
          "type": "uint8[]"
        },
        {
          "name": "rs",
          "type": "bytes32[]"
        },
        {
          "name": "ss",
          "type": "bytes32[]"
        }
      ],
      "name": "batchDelegatedDeposit",
      "outputs": [
        {
          "name": "",
          "type": "bool"
        }
      ],
      "payable": false,
      "stateMutability": "nonpayable",
      "type": "function"
    },
    {
      "constant": false,
      "inputs": [
        {
          "name": "newOwner",
          "type": "address"
        }
      ],
      "name": "transferOwnership",
      "outputs": [],
      "payable": false,
      "stateMutability": "nonpayable",
      "type": "function"
    },
    {
      "constant": true,
      "inputs": [],
      "name": "token",
      "outputs": [
        {
          "name": "",
          "type": "address"
        }
      ],
      "payable": false,
      "stateMutability": "view",
      "type": "function"
    },
    {
      "inputs": [
        {
          "name": "_token",
          "type": "address"
        }
      ],
      "payable": false,
      "stateMutability": "nonpayable",
      "type": "constructor"
    },
    {
      "anonymous": false,
      "inputs": [
        {
          "indexed": true,
          "name": "previousOwner",
          "type": "address"
        },
        {
          "indexed": true,
          "name": "newOwner",
          "type": "address"
        }
      ],
      "name": "OwnershipTransferred",
      "type": "event"
    }
  ],
  "bytecode": "0x6060604052341561000f57600080fd5b604051602080610a998339810160405280805160008054600160a060020a03338116600160a060020a031992831617909255600180549290931691161790555050610a3a8061005f6000396000f30060606040526004361061007f5763ffffffff60e060020a60003504166312065fe0811461008457806368fa5dd4146100a95780638da5cb5b1461015157806394d0d3a614610180578063975a55a8146101965780639890220b1461022a578063ef4e1a931461023d578063f2fde38b14610391578063fc0c546a146103b2575b600080fd5b341561008f57600080fd5b6100976103c5565b60405190815260200160405180910390f35b34156100b457600080fd5b61013d600480359060446024803590810190830135806020818102016040519081016040528093929190818152602001838360200280828437820191505050505050919080359060200190820180359060200190808060200260200160405190810160405280939291908181526020018383602002808284375094965061043f95505050505050565b604051901515815260200160405180910390f35b341561015c57600080fd5b610164610570565b604051600160a060020a03909116815260200160405180910390f35b341561018b57600080fd5b61013d60043561057f565b34156101a157600080fd5b61013d600480359060446024803590810190830135806020818102016040519081016040528093929190818152602001838360200280828437820191505050505050919080359060200190820180359060200190808060200260200160405190810160405280939291908181526020018383602002808284375094965061059495505050505050565b341561023557600080fd5b61013d6106ab565b341561024857600080fd5b61013d600480359060446024803590810190830135806020818102016040519081016040528093929190818152602001838360200280828437820191505050505050919080359060200190820180359060200190808060200260200160405190810160405280939291908181526020018383602002808284378201915050505050509190803590602001908201803590602001908080602002602001604051908101604052809392919081815260200183836020028082843782019150505050505091908035906020019082018035906020019080806020026020016040519081016040528093929190818152602001838360200280828437820191505050505050919080359060200190820180359060200190808060200260200160405190810160405280939291908181526020018383602002808284375094965061079995505050505050565b341561039c57600080fd5b6103b0600160a060020a0360043516610964565b005b34156103bd57600080fd5b6101646109ff565b600154600090600160a060020a03166370a0823130836040516020015260405160e060020a63ffffffff8416028152600160a060020a039091166004820152602401602060405180830381600087803b151561042057600080fd5b6102c65a03f1151561043157600080fd5b505050604051805191505090565b60008054819033600160a060020a0390811691161461045d57600080fd5b825184511461046b57600080fd5b60008581526002602052604090205460ff161515600114156104905760019150610568565b5060005b835181101561054957600154600160a060020a031663a9059cbb8583815181106104ba57fe5b906020019060200201518584815181106104d057fe5b9060200190602002015160006040516020015260405160e060020a63ffffffff8516028152600160a060020a0390921660048301526024820152604401602060405180830381600087803b151561052657600080fd5b6102c65a03f1151561053757600080fd5b50505060405180515050600101610494565b6000858152600260205260409020805460ff1916600190811790915591505b509392505050565b600054600160a060020a031681565b60026020526000908152604090205460ff1681565b60008054819033600160a060020a039081169116146105b257600080fd5b82518451146105c057600080fd5b60008581526002602052604090205460ff161515600114156105e55760019150610568565b5060005b835181101561054957600154600160a060020a03166323b872dd85838151811061060f57fe5b906020019060200201513086858151811061062657fe5b9060200190602002015160006040516020015260405160e060020a63ffffffff8616028152600160a060020a0393841660048201529190921660248201526044810191909152606401602060405180830381600087803b151561068857600080fd5b6102c65a03f1151561069957600080fd5b505050604051805150506001016105e9565b6000805433600160a060020a039081169116146106c757600080fd5b60015460008054600160a060020a039283169263a9059cbb9291169083906370a082319030906040516020015260405160e060020a63ffffffff8416028152600160a060020a039091166004820152602401602060405180830381600087803b151561073257600080fd5b6102c65a03f1151561074357600080fd5b5050506040518051905060006040516020015260405160e060020a63ffffffff8516028152600160a060020a0390921660048301526024820152604401602060405180830381600087803b151561042057600080fd5b60008054819033600160a060020a039081169116146107b757600080fd5b86518651146107c557600080fd5b86518551146107d357600080fd5b86518451146107e157600080fd5b86518351146107ef57600080fd5b60008881526002602052604090205460ff161515600114156108145760019150610959565b5060005b865181101561093a57600154600160a060020a031663aea77ac388838151811061083e57fe5b906020019060200201513089858151811061085557fe5b906020019060200201518c8a878151811061086c57fe5b906020019060200201518a888151811061088257fe5b906020019060200201518a898151811061089857fe5b9060200190602002015160006040516020015260405160e060020a63ffffffff8a16028152600160a060020a0397881660048201529590961660248601526044850193909352606484019190915260ff16608483015260a482015260c481019190915260e401602060405180830381600087803b151561091757600080fd5b6102c65a03f1151561092857600080fd5b50505060405180515050600101610818565b6000888152600260205260409020805460ff1916600190811790915591505b509695505050505050565b60005433600160a060020a0390811691161461097f57600080fd5b600160a060020a038116151561099457600080fd5b600054600160a060020a0380831691167f8be0079c531659141344cd1fd0a4f28419497f9722a3daafe3b4186f6b6457e060405160405180910390a36000805473ffffffffffffffffffffffffffffffffffffffff1916600160a060020a0392909216919091179055565b600154600160a060020a0316815600a165627a7a72305820b5b7be2bd9534be02cfb8ba1b18a9999d79e4474ffaec1196b498102c318a9e90029",
  "source": "pragma solidity ^0.4.19;\n\nimport \"./TokenPool.sol\";\n\ncontract BankPool is TokenPool {\n  function BankPool(SportDexToken _token) TokenPool(_token) public {}\n}\n",
  "sourcePath": "/Users/wucy/Developer/Sportik/foundation/contracts/token/BankPool.sol",
  "compiler": {
    "name": "solc",
    "version": "0.4.19+commit.c4cbbb05.Emscripten.clang"
  },
  "schemaVersion": "2.0.0",
  "updatedAt": "2018-03-29T00:40:32.951Z"
}