{
  "contractName": "DelegatableTokenMock",
  "abi": [
    {
      "constant": false,
      "inputs": [
        {
          "name": "_spender",
          "type": "address"
        },
        {
          "name": "_value",
          "type": "uint256"
        }
      ],
      "name": "approve",
      "outputs": [
        {
          "name": "",
          "type": "bool"
        }
      ],
      "payable": false,
      "stateMutability": "nonpayable",
      "type": "function"
    },
    {
      "constant": true,
      "inputs": [],
      "name": "totalSupply",
      "outputs": [
        {
          "name": "",
          "type": "uint256"
        }
      ],
      "payable": false,
      "stateMutability": "view",
      "type": "function"
    },
    {
      "constant": false,
      "inputs": [
        {
          "name": "_from",
          "type": "address"
        },
        {
          "name": "_to",
          "type": "address"
        },
        {
          "name": "_value",
          "type": "uint256"
        }
      ],
      "name": "transferFrom",
      "outputs": [
        {
          "name": "",
          "type": "bool"
        }
      ],
      "payable": false,
      "stateMutability": "nonpayable",
      "type": "function"
    },
    {
      "constant": false,
      "inputs": [
        {
          "name": "_spender",
          "type": "address"
        },
        {
          "name": "_subtractedValue",
          "type": "uint256"
        }
      ],
      "name": "decreaseApproval",
      "outputs": [
        {
          "name": "",
          "type": "bool"
        }
      ],
      "payable": false,
      "stateMutability": "nonpayable",
      "type": "function"
    },
    {
      "constant": true,
      "inputs": [
        {
          "name": "_owner",
          "type": "address"
        }
      ],
      "name": "balanceOf",
      "outputs": [
        {
          "name": "balance",
          "type": "uint256"
        }
      ],
      "payable": false,
      "stateMutability": "view",
      "type": "function"
    },
    {
      "constant": false,
      "inputs": [
        {
          "name": "_to",
          "type": "address"
        },
        {
          "name": "_value",
          "type": "uint256"
        }
      ],
      "name": "transfer",
      "outputs": [
        {
          "name": "",
          "type": "bool"
        }
      ],
      "payable": false,
      "stateMutability": "nonpayable",
      "type": "function"
    },
    {
      "constant": false,
      "inputs": [
        {
          "name": "from",
          "type": "address"
        },
        {
          "name": "to",
          "type": "address"
        },
        {
          "name": "value",
          "type": "uint256"
        },
        {
          "name": "nonce",
          "type": "uint256"
        },
        {
          "name": "v",
          "type": "uint8"
        },
        {
          "name": "r",
          "type": "bytes32"
        },
        {
          "name": "s",
          "type": "bytes32"
        }
      ],
      "name": "delegatedTransfer",
      "outputs": [
        {
          "name": "",
          "type": "bool"
        }
      ],
      "payable": false,
      "stateMutability": "nonpayable",
      "type": "function"
    },
    {
      "constant": false,
      "inputs": [
        {
          "name": "_spender",
          "type": "address"
        },
        {
          "name": "_addedValue",
          "type": "uint256"
        }
      ],
      "name": "increaseApproval",
      "outputs": [
        {
          "name": "",
          "type": "bool"
        }
      ],
      "payable": false,
      "stateMutability": "nonpayable",
      "type": "function"
    },
    {
      "constant": true,
      "inputs": [
        {
          "name": "_owner",
          "type": "address"
        },
        {
          "name": "_spender",
          "type": "address"
        }
      ],
      "name": "allowance",
      "outputs": [
        {
          "name": "",
          "type": "uint256"
        }
      ],
      "payable": false,
      "stateMutability": "view",
      "type": "function"
    },
    {
      "constant": false,
      "inputs": [
        {
          "name": "owner",
          "type": "address"
        },
        {
          "name": "spender",
          "type": "address"
        },
        {
          "name": "value",
          "type": "uint256"
        },
        {
          "name": "nonce",
          "type": "uint256"
        },
        {
          "name": "v",
          "type": "uint8"
        },
        {
          "name": "r",
          "type": "bytes32"
        },
        {
          "name": "s",
          "type": "bytes32"
        }
      ],
      "name": "delegatedApprove",
      "outputs": [
        {
          "name": "",
          "type": "bool"
        }
      ],
      "payable": false,
      "stateMutability": "nonpayable",
      "type": "function"
    },
    {
      "inputs": [
        {
          "name": "supply",
          "type": "uint256"
        }
      ],
      "payable": false,
      "stateMutability": "nonpayable",
      "type": "constructor"
    },
    {
      "anonymous": false,
      "inputs": [
        {
          "indexed": true,
          "name": "delegate",
          "type": "address"
        },
        {
          "indexed": true,
          "name": "from",
          "type": "address"
        },
        {
          "indexed": true,
          "name": "to",
          "type": "address"
        },
        {
          "indexed": false,
          "name": "amount",
          "type": "uint256"
        }
      ],
      "name": "DelegatedTransfer",
      "type": "event"
    },
    {
      "anonymous": false,
      "inputs": [
        {
          "indexed": true,
          "name": "delegate",
          "type": "address"
        },
        {
          "indexed": true,
          "name": "owner",
          "type": "address"
        },
        {
          "indexed": true,
          "name": "spender",
          "type": "address"
        },
        {
          "indexed": false,
          "name": "amount",
          "type": "uint256"
        }
      ],
      "name": "DelegatedApproval",
      "type": "event"
    },
    {
      "anonymous": false,
      "inputs": [
        {
          "indexed": true,
          "name": "owner",
          "type": "address"
        },
        {
          "indexed": true,
          "name": "spender",
          "type": "address"
        },
        {
          "indexed": false,
          "name": "value",
          "type": "uint256"
        }
      ],
      "name": "Approval",
      "type": "event"
    },
    {
      "anonymous": false,
      "inputs": [
        {
          "indexed": true,
          "name": "from",
          "type": "address"
        },
        {
          "indexed": true,
          "name": "to",
          "type": "address"
        },
        {
          "indexed": false,
          "name": "value",
          "type": "uint256"
        }
      ],
      "name": "Transfer",
      "type": "event"
    }
  ],
  "bytecode": "0x6060604052341561000f57600080fd5b604051602080610cf7833981016040528080516001819055600160a060020a0333166000908152602081905260409020555050610ca6806100516000396000f3006060604052600436106100a35763ffffffff7c0100000000000000000000000000000000000000000000000000000000600035041663095ea7b381146100a857806318160ddd146100de57806323b872dd14610103578063661884631461012b57806370a082311461014d578063a9059cbb1461016c578063aea77ac31461018e578063d73dd623146101c5578063dd62ed3e146101e7578063e08eca4b1461020c575b600080fd5b34156100b357600080fd5b6100ca600160a060020a0360043516602435610243565b604051901515815260200160405180910390f35b34156100e957600080fd5b6100f161029d565b60405190815260200160405180910390f35b341561010e57600080fd5b6100ca600160a060020a03600435811690602435166044356102a3565b341561013657600080fd5b6100ca600160a060020a0360043516602435610423565b341561015857600080fd5b6100f1600160a060020a036004351661050b565b341561017757600080fd5b6100ca600160a060020a0360043516602435610526565b341561019957600080fd5b6100ca600160a060020a036004358116906024351660443560643560ff6084351660a43560c435610638565b34156101d057600080fd5b6100ca600160a060020a0360043516602435610909565b34156101f257600080fd5b6100f1600160a060020a036004358116906024351661099b565b341561021757600080fd5b6100ca600160a060020a036004358116906024351660443560643560ff6084351660a43560c4356109c6565b600160a060020a0333811660008181526002602090815260408083209487168084529490915280822085905590929190600080516020610c5b8339815191529085905190815260200160405180910390a350600192915050565b60015490565b6000600160a060020a03831615156102ba57600080fd5b600160a060020a0384166000908152602081905260409020548211156102df57600080fd5b600160a060020a038085166000908152600260209081526040808320339094168352929052205482111561031257600080fd5b600160a060020a03841660009081526020819052604090205461033b908363ffffffff610c3216565b600160a060020a038086166000908152602081905260408082209390935590851681522054610370908363ffffffff610c4416565b600160a060020a03808516600090815260208181526040808320949094558783168252600281528382203390931682529190915220546103b6908363ffffffff610c3216565b600160a060020a03808616600081815260026020908152604080832033861684529091529081902093909355908516917fddf252ad1be2c89b69c2b068fc378daa952ba7f163c4a11628f55a4df523b3ef9085905190815260200160405180910390a35060019392505050565b600160a060020a0333811660009081526002602090815260408083209386168352929052908120548083111561048057600160a060020a0333811660009081526002602090815260408083209388168352929052908120556104b7565b610490818463ffffffff610c3216565b600160a060020a033381166000908152600260209081526040808320938916835292905220555b600160a060020a033381166000818152600260209081526040808320948916808452949091529081902054600080516020610c5b833981519152915190815260200160405180910390a35060019392505050565b600160a060020a031660009081526020819052604090205490565b6000600160a060020a038316151561053d57600080fd5b600160a060020a03331660009081526020819052604090205482111561056257600080fd5b600160a060020a03331660009081526020819052604090205461058b908363ffffffff610c3216565b600160a060020a0333811660009081526020819052604080822093909355908516815220546105c0908363ffffffff610c4416565b60008085600160a060020a0316600160a060020a031681526020019081526020016000208190555082600160a060020a031633600160a060020a03167fddf252ad1be2c89b69c2b068fc378daa952ba7f163c4a11628f55a4df523b3ef8460405190815260200160405180910390a350600192915050565b6000333082600160a060020a038b16151561065257600080fd5b600160a060020a038a16151561066757600080fd5b600160a060020a038b1660009081526020819052604090205489111561068c57600080fd5b82827f1b208786000000000000000000000000000000000000000000000000000000008d8d8d8d6040516c01000000000000000000000000600160a060020a0398891681028252968816870260148201527bffffffffffffffffffffffffffffffffffffffffffffffffffffffff1990951660288601529286168502602c850152941690920260408083019190915260548201939093526074810191909152609401905190819003902060008181526003602052604090205490915060ff1615156001141561075a57600080fd5b8a600160a060020a03166001828989896040516000815260200160405260006040516020015260405193845260ff90921660208085019190915260408085019290925260608401929092526080909201915160208103908084039060008661646e5a03f115156107c957600080fd5b505060206040510351600160a060020a0316146107e557600080fd5b600160a060020a038b1660009081526020819052604090205461080e908a63ffffffff610c3216565b600160a060020a03808d1660009081526020819052604080822093909355908c1681522054610843908a63ffffffff610c4416565b600160a060020a03808c166000818152602081815260408083209590955585825260039052839020805460ff19166001179055918d8216918616907f88655df13f88f3d90fa478cfed06a6cb3d9334b20f6d0da71e7c68d4cbfb43b0908d905190815260200160405180910390a489600160a060020a03168b600160a060020a03167fddf252ad1be2c89b69c2b068fc378daa952ba7f163c4a11628f55a4df523b3ef8b60405190815260200160405180910390a35060019a9950505050505050505050565b600160a060020a033381166000908152600260209081526040808320938616835292905290812054610941908363ffffffff610c4416565b600160a060020a033381166000818152600260209081526040808320948916808452949091529081902084905591929091600080516020610c5b83398151915291905190815260200160405180910390a350600192915050565b600160a060020a03918216600090815260026020908152604080832093909416825291909152205490565b6000333082600160a060020a038b1615156109e057600080fd5b600160a060020a038a1615156109f557600080fd5b600160a060020a038b16600090815260208190526040902054891115610a1a57600080fd5b82827ffe7d02f7000000000000000000000000000000000000000000000000000000008d8d8d8d6040516c01000000000000000000000000600160a060020a0398891681028252968816870260148201527bffffffffffffffffffffffffffffffffffffffffffffffffffffffff1990951660288601529286168502602c850152941690920260408083019190915260548201939093526074810191909152609401905190819003902060008181526003602052604090205490915060ff16151560011415610ae857600080fd5b8a600160a060020a03166001828989896040516000815260200160405260006040516020015260405193845260ff90921660208085019190915260408085019290925260608401929092526080909201915160208103908084039060008661646e5a03f11515610b5757600080fd5b505060206040510351600160a060020a031614610b7357600080fd5b600160a060020a03808c1660008181526002602090815260408083208f86168085529083528184208f9055868452600390925291829020805460ff19166001179055928616907f017c6ee7a65ab12617fcbab93689fd2320a33c25621ebd7a15fad08022254cbf908d905190815260200160405180910390a489600160a060020a03168b600160a060020a0316600080516020610c5b8339815191528b60405190815260200160405180910390a35060019a9950505050505050505050565b600082821115610c3e57fe5b50900390565b600082820183811015610c5357fe5b939250505056008c5be1e5ebec7d5bd14f71427d1e84f3dd0314c0f7b2291e5b200ac8c7c3b925a165627a7a72305820deb2f8e9b35171f35eaa13f361b8fc50fba1c19aa09088e74b0a33220f18ccde0029",
  "source": "pragma solidity ^0.4.18;\n\nimport \"../token/DelegatableToken.sol\";\n\ncontract DelegatableTokenMock is DelegatableToken {\n  function DelegatableTokenMock(uint256 supply) public {\n    totalSupply_ = supply;\n    balances[msg.sender] = supply;\n  }\n}\n",
  "sourcePath": "/Users/wucy/Developer/Sportik/foundation/contracts/mocks/DelegatableTokenMock.sol",
  "compiler": {
    "name": "solc",
    "version": "0.4.19+commit.c4cbbb05.Emscripten.clang"
  },
  "schemaVersion": "2.0.0",
  "updatedAt": "2018-03-29T00:31:04.061Z"
}