{
  "contractName": "SportDexToken",
  "abi": [
    {
      "constant": true,
      "inputs": [],
      "name": "name",
      "outputs": [
        {
          "name": "",
          "type": "bytes32"
        }
      ],
      "payable": false,
      "stateMutability": "view",
      "type": "function"
    },
    {
      "constant": false,
      "inputs": [
        {
          "name": "_spender",
          "type": "address"
        },
        {
          "name": "_value",
          "type": "uint256"
        }
      ],
      "name": "approve",
      "outputs": [
        {
          "name": "",
          "type": "bool"
        }
      ],
      "payable": false,
      "stateMutability": "nonpayable",
      "type": "function"
    },
    {
      "constant": true,
      "inputs": [],
      "name": "totalSupply",
      "outputs": [
        {
          "name": "",
          "type": "uint256"
        }
      ],
      "payable": false,
      "stateMutability": "view",
      "type": "function"
    },
    {
      "constant": false,
      "inputs": [
        {
          "name": "_from",
          "type": "address"
        },
        {
          "name": "_to",
          "type": "address"
        },
        {
          "name": "_value",
          "type": "uint256"
        }
      ],
      "name": "transferFrom",
      "outputs": [
        {
          "name": "",
          "type": "bool"
        }
      ],
      "payable": false,
      "stateMutability": "nonpayable",
      "type": "function"
    },
    {
      "constant": true,
      "inputs": [],
      "name": "initial_supply",
      "outputs": [
        {
          "name": "",
          "type": "uint256"
        }
      ],
      "payable": false,
      "stateMutability": "view",
      "type": "function"
    },
    {
      "constant": true,
      "inputs": [
        {
          "name": "",
          "type": "address"
        }
      ],
      "name": "delegateWhitelist",
      "outputs": [
        {
          "name": "",
          "type": "bool"
        }
      ],
      "payable": false,
      "stateMutability": "view",
      "type": "function"
    },
    {
      "constant": true,
      "inputs": [],
      "name": "decimals",
      "outputs": [
        {
          "name": "",
          "type": "uint8"
        }
      ],
      "payable": false,
      "stateMutability": "view",
      "type": "function"
    },
    {
      "constant": false,
      "inputs": [],
      "name": "unpause",
      "outputs": [],
      "payable": false,
      "stateMutability": "nonpayable",
      "type": "function"
    },
    {
      "constant": true,
      "inputs": [],
      "name": "paused",
      "outputs": [
        {
          "name": "",
          "type": "bool"
        }
      ],
      "payable": false,
      "stateMutability": "view",
      "type": "function"
    },
    {
      "constant": false,
      "inputs": [
        {
          "name": "_spender",
          "type": "address"
        },
        {
          "name": "_subtractedValue",
          "type": "uint256"
        }
      ],
      "name": "decreaseApproval",
      "outputs": [
        {
          "name": "success",
          "type": "bool"
        }
      ],
      "payable": false,
      "stateMutability": "nonpayable",
      "type": "function"
    },
    {
      "constant": true,
      "inputs": [
        {
          "name": "_owner",
          "type": "address"
        }
      ],
      "name": "balanceOf",
      "outputs": [
        {
          "name": "balance",
          "type": "uint256"
        }
      ],
      "payable": false,
      "stateMutability": "view",
      "type": "function"
    },
    {
      "constant": false,
      "inputs": [],
      "name": "pause",
      "outputs": [],
      "payable": false,
      "stateMutability": "nonpayable",
      "type": "function"
    },
    {
      "constant": true,
      "inputs": [],
      "name": "owner",
      "outputs": [
        {
          "name": "",
          "type": "address"
        }
      ],
      "payable": false,
      "stateMutability": "view",
      "type": "function"
    },
    {
      "constant": true,
      "inputs": [],
      "name": "symbol",
      "outputs": [
        {
          "name": "",
          "type": "bytes32"
        }
      ],
      "payable": false,
      "stateMutability": "view",
      "type": "function"
    },
    {
      "constant": false,
      "inputs": [
        {
          "name": "_to",
          "type": "address"
        },
        {
          "name": "_value",
          "type": "uint256"
        }
      ],
      "name": "transfer",
      "outputs": [
        {
          "name": "",
          "type": "bool"
        }
      ],
      "payable": false,
      "stateMutability": "nonpayable",
      "type": "function"
    },
    {
      "constant": false,
      "inputs": [
        {
          "name": "_spender",
          "type": "address"
        },
        {
          "name": "_addedValue",
          "type": "uint256"
        }
      ],
      "name": "increaseApproval",
      "outputs": [
        {
          "name": "success",
          "type": "bool"
        }
      ],
      "payable": false,
      "stateMutability": "nonpayable",
      "type": "function"
    },
    {
      "constant": true,
      "inputs": [
        {
          "name": "_owner",
          "type": "address"
        },
        {
          "name": "_spender",
          "type": "address"
        }
      ],
      "name": "allowance",
      "outputs": [
        {
          "name": "",
          "type": "uint256"
        }
      ],
      "payable": false,
      "stateMutability": "view",
      "type": "function"
    },
    {
      "constant": false,
      "inputs": [
        {
          "name": "newOwner",
          "type": "address"
        }
      ],
      "name": "transferOwnership",
      "outputs": [],
      "payable": false,
      "stateMutability": "nonpayable",
      "type": "function"
    },
    {
      "inputs": [],
      "payable": false,
      "stateMutability": "nonpayable",
      "type": "constructor"
    },
    {
      "anonymous": false,
      "inputs": [
        {
          "indexed": true,
          "name": "delegate",
          "type": "address"
        },
        {
          "indexed": true,
          "name": "from",
          "type": "address"
        },
        {
          "indexed": true,
          "name": "to",
          "type": "address"
        },
        {
          "indexed": false,
          "name": "amount",
          "type": "uint256"
        }
      ],
      "name": "DelegatedTransfer",
      "type": "event"
    },
    {
      "anonymous": false,
      "inputs": [
        {
          "indexed": true,
          "name": "delegate",
          "type": "address"
        },
        {
          "indexed": true,
          "name": "owner",
          "type": "address"
        },
        {
          "indexed": true,
          "name": "spender",
          "type": "address"
        },
        {
          "indexed": false,
          "name": "amount",
          "type": "uint256"
        }
      ],
      "name": "DelegatedApproval",
      "type": "event"
    },
    {
      "anonymous": false,
      "inputs": [],
      "name": "Pause",
      "type": "event"
    },
    {
      "anonymous": false,
      "inputs": [],
      "name": "Unpause",
      "type": "event"
    },
    {
      "anonymous": false,
      "inputs": [
        {
          "indexed": true,
          "name": "previousOwner",
          "type": "address"
        },
        {
          "indexed": true,
          "name": "newOwner",
          "type": "address"
        }
      ],
      "name": "OwnershipTransferred",
      "type": "event"
    },
    {
      "anonymous": false,
      "inputs": [
        {
          "indexed": true,
          "name": "owner",
          "type": "address"
        },
        {
          "indexed": true,
          "name": "spender",
          "type": "address"
        },
        {
          "indexed": false,
          "name": "value",
          "type": "uint256"
        }
      ],
      "name": "Approval",
      "type": "event"
    },
    {
      "anonymous": false,
      "inputs": [
        {
          "indexed": true,
          "name": "from",
          "type": "address"
        },
        {
          "indexed": true,
          "name": "to",
          "type": "address"
        },
        {
          "indexed": false,
          "name": "value",
          "type": "uint256"
        }
      ],
      "name": "Transfer",
      "type": "event"
    },
    {
      "constant": false,
      "inputs": [
        {
          "name": "delegate",
          "type": "address"
        }
      ],
      "name": "addDelegate",
      "outputs": [
        {
          "name": "",
          "type": "bool"
        }
      ],
      "payable": false,
      "stateMutability": "nonpayable",
      "type": "function"
    },
    {
      "constant": false,
      "inputs": [
        {
          "name": "delegate",
          "type": "address"
        }
      ],
      "name": "removeDelegate",
      "outputs": [
        {
          "name": "",
          "type": "bool"
        }
      ],
      "payable": false,
      "stateMutability": "nonpayable",
      "type": "function"
    },
    {
      "constant": false,
      "inputs": [
        {
          "name": "from",
          "type": "address"
        },
        {
          "name": "to",
          "type": "address"
        },
        {
          "name": "value",
          "type": "uint256"
        },
        {
          "name": "nonce",
          "type": "uint256"
        },
        {
          "name": "v",
          "type": "uint8"
        },
        {
          "name": "r",
          "type": "bytes32"
        },
        {
          "name": "s",
          "type": "bytes32"
        }
      ],
      "name": "delegatedTransfer",
      "outputs": [
        {
          "name": "",
          "type": "bool"
        }
      ],
      "payable": false,
      "stateMutability": "nonpayable",
      "type": "function"
    },
    {
      "constant": false,
      "inputs": [
        {
          "name": "owner",
          "type": "address"
        },
        {
          "name": "spender",
          "type": "address"
        },
        {
          "name": "value",
          "type": "uint256"
        },
        {
          "name": "nonce",
          "type": "uint256"
        },
        {
          "name": "v",
          "type": "uint8"
        },
        {
          "name": "r",
          "type": "bytes32"
        },
        {
          "name": "s",
          "type": "bytes32"
        }
      ],
      "name": "delegatedApprove",
      "outputs": [
        {
          "name": "",
          "type": "bool"
        }
      ],
      "payable": false,
      "stateMutability": "nonpayable",
      "type": "function"
    }
  ],
  "bytecode": "0x60606040526003805460a060020a60ff0219169055341561001f57600080fd5b60038054600160a060020a033316600160a060020a031990911681179091556509184e72a000600181905560009182526020829052604090912055611255806100696000396000f3006060604052600436106101275763ffffffff7c010000000000000000000000000000000000000000000000000000000060003504166306fdde03811461012c578063095ea7b31461015157806318160ddd1461018757806323b872dd1461019a5780632405e3c6146101c25780632cc5ecd5146101d5578063313ce567146101f45780633f4ba83a1461021d5780635c975abb14610232578063661884631461024557806367e7646f1461026757806370a08231146102865780638456cb59146102a55780638da5cb5b146102b857806395d89b41146102e7578063a9059cbb146102fa578063aea77ac31461031c578063d73dd62314610353578063dd62ed3e14610375578063e08eca4b1461039a578063e71bdf41146103d1578063f2fde38b146103f0575b600080fd5b341561013757600080fd5b61013f61040f565b60405190815260200160405180910390f35b341561015c57600080fd5b610173600160a060020a0360043516602435610433565b604051901515815260200160405180910390f35b341561019257600080fd5b61013f61045e565b34156101a557600080fd5b610173600160a060020a0360043581169060243516604435610464565b34156101cd57600080fd5b61013f610491565b34156101e057600080fd5b610173600160a060020a0360043516610499565b34156101ff57600080fd5b6102076104ae565b60405160ff909116815260200160405180910390f35b341561022857600080fd5b6102306104b3565b005b341561023d57600080fd5b610173610532565b341561025057600080fd5b610173600160a060020a0360043516602435610542565b341561027257600080fd5b610173600160a060020a0360043516610566565b341561029157600080fd5b61013f600160a060020a03600435166105a8565b34156102b057600080fd5b6102306105c3565b34156102c357600080fd5b6102cb610647565b604051600160a060020a03909116815260200160405180910390f35b34156102f257600080fd5b61013f610656565b341561030557600080fd5b610173600160a060020a036004351660243561067a565b341561032757600080fd5b610173600160a060020a036004358116906024351660443560643560ff6084351660a43560c43561069e565b341561035e57600080fd5b610173600160a060020a03600435166024356106e0565b341561038057600080fd5b61013f600160a060020a0360043581169060243516610704565b34156103a557600080fd5b610173600160a060020a036004358116906024351660443560643560ff6084351660a43560c43561072f565b34156103dc57600080fd5b610173600160a060020a0360043516610765565b34156103fb57600080fd5b610230600160a060020a03600435166107aa565b7f53706f727444657800000000000000000000000000000000000000000000000081565b60035460009060a060020a900460ff161561044d57600080fd5b6104578383610845565b9392505050565b60015490565b60035460009060a060020a900460ff161561047e57600080fd5b61048984848461089f565b949350505050565b633b9aca0081565b60056020526000908152604090205460ff1681565b600481565b60035433600160a060020a039081169116146104ce57600080fd5b60035460a060020a900460ff1615156104e657600080fd5b6003805474ff0000000000000000000000000000000000000000191690557f7805862f689e2f13df9f062ff482ad3ad112aca9e0847911ed832e158c525b3360405160405180910390a1565b60035460a060020a900460ff1681565b60035460009060a060020a900460ff161561055c57600080fd5b6104578383610a1f565b60035460009033600160a060020a0390811691161461058457600080fd5b600160a060020a039091166000908152600560205260409020805460ff1916905590565b600160a060020a031660009081526020819052604090205490565b60035433600160a060020a039081169116146105de57600080fd5b60035460a060020a900460ff16156105f557600080fd5b6003805474ff0000000000000000000000000000000000000000191660a060020a1790557f6985a02210a168e66602d3235cb6db0e70f92b3ba4d376a33c0f3d9434bff62560405160405180910390a1565b600354600160a060020a031681565b7f53504f000000000000000000000000000000000000000000000000000000000081565b60035460009060a060020a900460ff161561069457600080fd5b6104578383610b07565b600160a060020a03331660009081526005602052604081205460ff1615156106c557600080fd5b6106d488888888888888610c19565b98975050505050505050565b60035460009060a060020a900460ff16156106fa57600080fd5b6104578383610eea565b600160a060020a03918216600090815260026020908152604080832093909416825291909152205490565b600160a060020a03331660009081526005602052604081205460ff16151561075657600080fd5b6106d488888888888888610f7c565b60035460009033600160a060020a0390811691161461078357600080fd5b600160a060020a039091166000908152600560205260409020805460ff1916600117905590565b60035433600160a060020a039081169116146107c557600080fd5b600160a060020a03811615156107da57600080fd5b600354600160a060020a0380831691167f8be0079c531659141344cd1fd0a4f28419497f9722a3daafe3b4186f6b6457e060405160405180910390a36003805473ffffffffffffffffffffffffffffffffffffffff1916600160a060020a0392909216919091179055565b600160a060020a033381166000818152600260209081526040808320948716808452949091528082208590559092919060008051602061120a8339815191529085905190815260200160405180910390a350600192915050565b6000600160a060020a03831615156108b657600080fd5b600160a060020a0384166000908152602081905260409020548211156108db57600080fd5b600160a060020a038085166000908152600260209081526040808320339094168352929052205482111561090e57600080fd5b600160a060020a038416600090815260208190526040902054610937908363ffffffff6111e816565b600160a060020a03808616600090815260208190526040808220939093559085168152205461096c908363ffffffff6111fa16565b600160a060020a03808516600090815260208181526040808320949094558783168252600281528382203390931682529190915220546109b2908363ffffffff6111e816565b600160a060020a03808616600081815260026020908152604080832033861684529091529081902093909355908516917fddf252ad1be2c89b69c2b068fc378daa952ba7f163c4a11628f55a4df523b3ef9085905190815260200160405180910390a35060019392505050565b600160a060020a03338116600090815260026020908152604080832093861683529290529081205480831115610a7c57600160a060020a033381166000908152600260209081526040808320938816835292905290812055610ab3565b610a8c818463ffffffff6111e816565b600160a060020a033381166000908152600260209081526040808320938916835292905220555b600160a060020a03338116600081815260026020908152604080832094891680845294909152908190205460008051602061120a833981519152915190815260200160405180910390a35060019392505050565b6000600160a060020a0383161515610b1e57600080fd5b600160a060020a033316600090815260208190526040902054821115610b4357600080fd5b600160a060020a033316600090815260208190526040902054610b6c908363ffffffff6111e816565b600160a060020a033381166000908152602081905260408082209390935590851681522054610ba1908363ffffffff6111fa16565b60008085600160a060020a0316600160a060020a031681526020019081526020016000208190555082600160a060020a031633600160a060020a03167fddf252ad1be2c89b69c2b068fc378daa952ba7f163c4a11628f55a4df523b3ef8460405190815260200160405180910390a350600192915050565b6000333082600160a060020a038b161515610c3357600080fd5b600160a060020a038a161515610c4857600080fd5b600160a060020a038b16600090815260208190526040902054891115610c6d57600080fd5b82827f1b208786000000000000000000000000000000000000000000000000000000008d8d8d8d6040516c01000000000000000000000000600160a060020a0398891681028252968816870260148201527bffffffffffffffffffffffffffffffffffffffffffffffffffffffff1990951660288601529286168502602c850152941690920260408083019190915260548201939093526074810191909152609401905190819003902060008181526004602052604090205490915060ff16151560011415610d3b57600080fd5b8a600160a060020a03166001828989896040516000815260200160405260006040516020015260405193845260ff90921660208085019190915260408085019290925260608401929092526080909201915160208103908084039060008661646e5a03f11515610daa57600080fd5b505060206040510351600160a060020a031614610dc657600080fd5b600160a060020a038b16600090815260208190526040902054610def908a63ffffffff6111e816565b600160a060020a03808d1660009081526020819052604080822093909355908c1681522054610e24908a63ffffffff6111fa16565b600160a060020a03808c166000818152602081815260408083209590955585825260049052839020805460ff19166001179055918d8216918616907f88655df13f88f3d90fa478cfed06a6cb3d9334b20f6d0da71e7c68d4cbfb43b0908d905190815260200160405180910390a489600160a060020a03168b600160a060020a03167fddf252ad1be2c89b69c2b068fc378daa952ba7f163c4a11628f55a4df523b3ef8b60405190815260200160405180910390a35060019a9950505050505050505050565b600160a060020a033381166000908152600260209081526040808320938616835292905290812054610f22908363ffffffff6111fa16565b600160a060020a03338116600081815260026020908152604080832094891680845294909152908190208490559192909160008051602061120a83398151915291905190815260200160405180910390a350600192915050565b6000333082600160a060020a038b161515610f9657600080fd5b600160a060020a038a161515610fab57600080fd5b600160a060020a038b16600090815260208190526040902054891115610fd057600080fd5b82827ffe7d02f7000000000000000000000000000000000000000000000000000000008d8d8d8d6040516c01000000000000000000000000600160a060020a0398891681028252968816870260148201527bffffffffffffffffffffffffffffffffffffffffffffffffffffffff1990951660288601529286168502602c850152941690920260408083019190915260548201939093526074810191909152609401905190819003902060008181526004602052604090205490915060ff1615156001141561109e57600080fd5b8a600160a060020a03166001828989896040516000815260200160405260006040516020015260405193845260ff90921660208085019190915260408085019290925260608401929092526080909201915160208103908084039060008661646e5a03f1151561110d57600080fd5b505060206040510351600160a060020a03161461112957600080fd5b600160a060020a03808c1660008181526002602090815260408083208f86168085529083528184208f9055868452600490925291829020805460ff19166001179055928616907f017c6ee7a65ab12617fcbab93689fd2320a33c25621ebd7a15fad08022254cbf908d905190815260200160405180910390a489600160a060020a03168b600160a060020a031660008051602061120a8339815191528b60405190815260200160405180910390a35060019a9950505050505050505050565b6000828211156111f457fe5b50900390565b60008282018381101561045757fe008c5be1e5ebec7d5bd14f71427d1e84f3dd0314c0f7b2291e5b200ac8c7c3b925a165627a7a7230582077a84b0aadee9a2f932721805445ad37f89582de328b0bb12d8118f7d95d380d0029",
  "source": "pragma solidity ^0.4.18;\n\nimport \"zeppelin-solidity/contracts/token/ERC20/PausableToken.sol\";\nimport \"./DelegatableToken.sol\";\n\n/**\n * @title Sportdex Token\n * @dev ERC20-compatible Token for Sport Dex\n */\ncontract SportDexToken is PausableToken, DelegatableToken {\n  bytes32 public constant name = \"SportDex\";\n  bytes32 public constant symbol= \"SPO\";\n  uint8 public constant decimals = 4;\n  uint256 public constant initial_supply = 1e9;\n\n  mapping (address => bool) public delegateWhitelist;\n\n  function SportDexToken() public {\n    uint256 total = initial_supply * 10 ** uint256(decimals);\n    totalSupply_ = total;\n    balances[msg.sender] = total;\n  }\n\n  function addDelegate(address delegate) onlyOwner public returns (bool) {\n    delegateWhitelist[delegate] = true;\n  }\n\n  function removeDelegate(address delegate) onlyOwner public returns (bool) {\n    delete delegateWhitelist[delegate];\n  }\n\n  function delegatedTransfer(\n    address from,\n    address to,\n    uint256 value,\n    uint256 nonce,\n    uint8 v, bytes32 r, bytes32 s\n  ) public returns (bool) {\n    require(delegateWhitelist[msg.sender]);\n    return super.delegatedTransfer(from, to, value, nonce, v, r, s);\n  }\n\n  function delegatedApprove(\n    address owner,\n    address spender,\n    uint256 value,\n    uint256 nonce,\n    uint8 v, bytes32 r, bytes32 s\n  ) public returns (bool) {\n    require(delegateWhitelist[msg.sender]);\n    return super.delegatedApprove(owner, spender, value, nonce, v, r, s);\n  }\n}\n",
  "sourcePath": "/Users/wucy/Developer/Sportik/foundation/contracts/token/SportDexToken.sol",
  "compiler": {
    "name": "solc",
    "version": "0.4.19+commit.c4cbbb05.Emscripten.clang"
  },
  "schemaVersion": "2.0.0",
  "updatedAt": "2018-03-29T02:36:36.408Z"
}